:10000000020B33020009020D4380FE020A6080FEEB
:1000100080FE2202000E80FE80FE1402001080FE90
:0200200080FE60
:0700230002001680FE80FEC2
:10002B000200188F828E83E5821582AE83700215D3
:10003B00834E60097F147E00120FC080EA2280FE7F
:05004B0002001E80FE12
:0300530002002088
:03005B000200267A
:0D0063000200288F993099FDC2997F00227C
:03007300020DC5B6
:0C007B00020049300105C20143D44022BC
:10008B0002004E8F0DC20374017E00A80708800585
:10009B00C333CE33CED8F9F5158E1475F002E50DBA
:1000AB00A42423F582E5F03411F583E493FC740169
:1000BB0093FD900059E0FF7E001209887C007D0AB9
:1000CB0012099A8E0E8F0F75F002E50DA42403F51D
:1000DB0082E5F03411F583E493F510740193F51177
:1000EB007425250DF582E43400F583E0F50DF470ED
:1000FB000302075475F002E50DA4244FF582E5F0D9
:10010B003400F583E0FEA3E0FF75F002E50DA424B7
:10011B0066F582E5F03400F583E0FCA3E0C39FF5C0
:10012B0013EC9EF51275F002E50DA42411F582E592
:10013B00F03400F583E0FCA3E0C39FFFEC9EAB071C
:10014B00FA901101E493FF70030202817E00AC0E62
:10015B00AD0F120988D3EB9FEE6480F8EA648098A8
:10016B00500302027F75F002E50DA4241BF582E516
:10017B00F03400F583E475F0011209EF75F002E538
:10018B000DA4241BF582E5F03400F583E0FEA3E01B
:10019B00FF9010FBE493FC740193FDD3EF9DEE9C59
:1001AB00402C75F002E50DA4244FF582E5F03400E8
:1001BB00F583E5128513F01209EF75F002E50DA436
:1001CB00241BF582E5F03400F583E4F0A3F07435DD
:1001DB00250DF582E43400F583E004F07435250D2C
:1001EB00F582E43400F583E0FF901100E493FEEF19
:1001FB00C39E401FE515F4FFE514F4FE900070E07C
:10020B005EF0A3E05FF07435250DF582E43400F564
:10021B0083E4F07400250DF582E43400F583E4F0FB
:10022B0075F002E50DA4243AF582E5F03400F58370
:10023B00E4F0A3F075F002E50DA4245AF582E5F085
:10024B003400F583E4F0A3F075F002E50DA4240768
:10025B00F582E5F03400F583E4F0A3F075F002E5E8
:10026B000DA42444F582E5F03400F583E4F0A3F00B
:10027B00D2038002C203C3EB950FE50E6480F8EA4C
:10028B0064809850030203BD3003030207549000AF
:10029B0005E0FEA3E0FF4E606A75F002E50DA424B5
:1002AB003AF582E5F03400F583E475F0011209EFBD
:1002BB0075F002E50DA4243AF582E5F03400F583E0
:1002CB00E0FCA3E0C39FEC9E403975F002E50DA462
:1002DB00244FF582E5F03400F583E5128513F01217
:1002EB0009EF7400250DF582E43400F583E4F07515
:1002FB00F002E50DA4243AF582E5F03400F583E431
:10030B00F0A3F0901144E4937E00250FFFEE350E21
:10031B00FEC3E5139FEE6480F8E512648098500DE0
:10032B00C3EB9FEE6480F8EA648098405374002519
:10033B000DF582E43400F583E004F07400250DF52F
:10034B0082E43400F583E0FF9010FFE493FEEFC3EB
:10035B009E4019900070E04514F0A3E04515F07431
:10036B0000250DF582E43400F583E4F075F002E529
:10037B000DA4245AF582E5F03400F583E4F0A3F0E4
:10038B007435250DF582E43400F583E4F075F00245
:10039B00E50DA4241BF582E5F03400F583E4F0A30E
:1003AB00F075F002E50DA42407F582E5F0340002A8
:1003BB000643D3EB9511E5106480F8EA64809850FE
:1003CB00030204DE900064E0FEA3E0FF4E605D7567
:1003DB00F002E50DA4245AF582E5F03400F583E430
:1003EB0075F0011209EF75F002E50DA4245AF582A0
:1003FB00E5F03400F583E0FCA3E0D39FEC9E402CAA
:10040B0075F002E50DA4244FF582E5F03400F58379
:10041B00E5128513F01209EF75F002E50DA4245ACD
:10042B00F582E5F03400F583E4F0A3F0901144E499
:10043B0093FFC3E50F9FFFE50E9400FEC3E5139FEB
:10044B00EE6480F8E512648098400CEB9FEE6480BC
:10045B00F8EA64809850597435250DF582E4340020
:10046B00F583E004F07435250DF582E43400F58353
:10047B00E0FF901100E493FEEFC39E401FE515F4DF
:10048B00FFE514F4FE900070E05EF0A3E05FF07403
:10049B0035250DF582E43400F583E4F075F002E5C3
:1004AB000DA4243AF582E5F03400F583E4F0A3F0D3
:1004BB0075F002E50DA4241BF582E5F03400F583FD
:1004CB00E4F0A3F07400250DF582E43400F583E429
:1004DB00020648C3E49511FFE49510FEC3EB9FEEB3
:1004EB006480F8EA648098500302065AD3EB9511A6
:1004FB00E5106480F8EA648098400302065A75F0B0
:10050B0002E50DA42407F582E5F03400F583EA8BB0
:10051B00F01209EF901102E493F9FF75F002E50D6B
:10052B00A42407F582E5F03400F583E0FCA3E0FD9D
:10053B00D39F7480F8EC648098401D90004EE0FFD0
:10054B0075F002E50DA4244FF582E5F03400F58338
:10055B00E48FF01209EF8044E9FFC3E49FFFE494BA
:10056B0000FEC3ED9FEE6480F8EC648098504175FB
:10057B00F002E50DA4244FF582E5F03400F583C0BD
:10058B0083C082E0FEA3E0FF90004EE0FDC3EF9D31
:10059B00FFEE9400D082D083F0A3EFF075F002E56C
:1005AB000DA42407F582E5F03400F583E4F0A3F005
:1005BB007435250DF582E43400F583E004F07435D1
:1005CB00250DF582E43400F583E0FF901100E493F0
:1005DB00FEEFC39E401F7435250DF582E43400F504
:1005EB0083E4F0E515F4FFE514F4FE900070E05E93
:1005FB00F0A3E05FF075F002E50DA4241BF582E596
:10060B00F03400F583E4F0A3F07400250DF582E4DB
:10061B003400F583E4F075F002E50DA4243AF5827D
:10062B00E5F03400F583E4F0A3F075F002E50DA4DA
:10063B00245AF582E5F03400F583E4F0A3F075F06D
:10064B0002E50DA42444F582E5F0340002074C903A
:10065B0010FDE493FE740193FF4E605D75F002E5AF
:10066B000DA42444F582E5F03400F583E475F00124
:10067B001209EF75F002E50DA42444F582E5F03480
:10068B0000F583E0FCA3E0C39FEC9E402C75F002C9
:10069B00E50DA42444F582E5F03400F583E4F0A3E2
:1006AB00F075F002E50DA4244FF582E5F03400F56A
:1006BB0083E5128513F01209EF7435250DF582E4ED
:1006CB003400F583E004F07435250DF582E4340035
:1006DB00F583E0FF901100E493FEEFC39E401F747F
:1006EB0035250DF582E43400F583E4F0E515F4FFD0
:1006FB00E514F4FE900070E05EF0A3E05FF075F09F
:10070B0002E50DA4241BF582E5F03400F583E4F03B
:10071B00A3F07400250DF582E43400F583E4F07545
:10072B00F002E50DA4243AF582E5F03400F583E4FC
:10073B00F0A3F075F002E50DA4245AF582E5F03430
:10074B0000F583E4F0A3F0C2032290FE94E0440290
:10075B00F090FE40E4F0A3F0A3F0A3F0A3F0A3F01D
:10076B00A3F0A3F0A3F0A3F0A3F0A3F0A3F0A3F0E6
:10077B00A3F0A3F090FE60F0A3F0A3F0A3F0A3F01E
:10078B00A3F0A3F0A3F09010F59390FE77F09010E8
:10079B00F6E49390FE76F09010F7E49390FE75F0EC
:1007AB009010F8E49390FE74F09010F0E493F51A27
:1007BB00740193F51B9010FAE4936061E4F50C90CF
:1007CB001145E493FFE50CC39F505274017E00A8C2
:1007DB000C088005C333CE33CED8F9FFE51A5EFE85
:1007EB00E51B5F4E603390FE72C083C082E0FCA3BA
:1007FB00E0FDE50C9010E093FF74017E00A8070864
:10080B008005C333CE33CED8F9FFEC4EFEED4FFF50
:10081B00D082D083EEF0A3EFF0050C80A243D480FE
:10082B00D2BD120CFA901145E493F519120D43D277
:10083B0002C20012007E901146E493FFD394035042
:10084B0005750C058005EF2404F50CE50C600F30E5
:10085B0000F9120F03150CC20012007E80ED120E70
:10086B0000C20222D287D281D280D2A7742625253C
:10087B00F8E624D5700302093024E6700302092040
:10088B002445B40A00400302093E90089CF828282E
:10089B00730208BA0208CA0208CE0208DA0208EA92
:1008AB000208F40208FE02090402090C020914D220
:1008BB00A6D2A4D2B4D2A2D2A1D2A5C2B58074C200
:1008CB00A68038D2A6D2A4C2B4D2A2D2A1800AD218
:1008DB00A6D2A4D2B4D2A2C2A1C2A5D2B58054C210
:1008EB00A6D2A4D2B4C2A28028D2A6C2A4D2B4D219
:1008FB00A2801ED2A6C2A4800CD2A6D2A4D2B4804F
:10090B002AD2A6D2A4D2B48012D2A6D2A4D2B4D266
:10091B00A2C2A1800AD2A6C2A4C2B4D2A2D2A1D230
:10092B00A5D2B5800EC2A6C2A4C2B4C2A2C2A1C235
:10093B00A5C2B5E52F6002D2A3E5257006C287D20A
:10094B00818009E525B4010AD287C281D280D2A762
:10095B00801CE525B4020AD287D281C280D2A7803F
:10096B000DE525B40308D287D281D280C2A7052515
:10097B00D3E525648094834003E4F52522EF8DF0C5
:10098B00A4A8F0CF8CF0A428CE8DF0A42EFE22BC10
:10099B00000BBE0029EF8DF084FFADF022E4CCF804
:1009AB0075F008EF2FFFEE33FEEC33FCEE9DEC9869
:1009BB004005FCEE9DFE0FD5F0E9E4CEFD22EDF8EF
:1009CB00F5F0EE8420D21CFEADF075F008EF2FFF92
:1009DB00ED33FD4007985006D5F0F222C398FD0F7A
:1009EB00D5F0EA22C5F0F8A3E028F0C5F0F8E582CF
:1009FB00158270021583E038F022BB010A89828AC6
:100A0B0083E0F5F0A3E022500687F009E71922BB3B
:100A1B00FE07E3F5F009E3192289828A83E493F553
:100A2B00F074019322BB010A89828A83F0E5F0A35B
:100A3B00F0225006F709A7F01922BBFE06F3E5F0EA
:100A4B0009F31922EB9FF5F0EA9E42F0E99D42F083
:100A5B00E89C45F022C0E0C0F0C083C082C0D075D6
:100A6B00D000C000C001C002C003C004C005C00656
:100A7B00C00712086FE4FFFEFDFCAB37AA36A935A1
:100A8B00A834D3120A4F4030E53724FFF537E5364B
:100A9B0034FFF536E53534FFF535E53434FFF53401
:100AAB00E4FFFEFDFCAB37AA36A935A834C3120A06
:100ABB004F70457538018040E4FFFEFDFCAB3CAA4E
:100ACB003BA93AA839D3120A4F402DE53C24FFF538
:100ADB003CE53B34FFF53BE53A34FFF53AE5393479
:100AEB00FFF539E4FFFEFDFCAB3CAA3BA93AA83964
:100AFB00C3120A4F7002F538E52E2401F52EE435AA
:100B0B002DF52DE4352CF52CE4352BF52BD007D01A
:100B1B0006D005D004D003D002D001D000D0D0D065
:100B2B0082D083D0F0D0E03278FFE4F6D8FD90008D
:100B3B00007F007E04E4F0A3DFFCDEFA75813E0249
:100B4B000B88020C42E493A3F8E493A34003F680D2
:100B5B0001F208DFF48029E493A3F85407240CC8AE
:100B6B00C333C4540F4420C8834004F45680014659
:100B7B00F6DFE4800B0102040810204080900CA7E4
:100B8B00E47E019360BCA3FF543F30E509541FFE84
:100B9B00E493A360010ECF54C025E060A840B8E4F5
:100BAB0093A3FAE493A3F8E493A3C8C582C8CAC578
:100BBB0083CAF0A3C8C582C8CAC583CADFE9DEE70A
:100BCB0080BEE4F58090FF0004F090FF01F090FFF1
:100BDB0002F090FF03F090FF04F090FF05F090FF00
:100BEB0006F090FF07F090FF08F090FF09F090FFE0
:100BFB000AF090FF0BF090FF0CF090FF0DF090FFC0
:100C0B000EF090FF0FF0E4F5A090FF1004F090FFB2
:100C1B0011F090FF12F090FF13F090FF14F090FF83
:100C2B0015F090FF16F090FF17F0E4F5B090FF1C55
:100C3B0004F090FF1DF022E4F508F509F50AF50B19
:100C4B00120FD6120FA7120D8A120FECD2AF12078A
:100C5B005590FF0374C1F0E4F530F531F532F533FF
:100C6B0030000B120F03120F60120012C200900023
:100C7B0070E0FEA3E0FF4E6013EF65097003EE65B5
:100C8B0008600E8E088F09120ED48005E4F508F566
:100C9B00097B007A007930120F3280C404260000E1
:100CAB000000012F00043400000000043900000094
:100CBB0000042B00000000013800023D0000012A57
:100CCB000004210000000001250042000503E8425A
:100CDB00006403E84100590A41004E020119000269
:100CEB001A0000C102C101C100420070000000E403
:100CFB00FDFC901145E493FFEDC39F503A74017EC8
:100D0B0000A805088005C333CE33CED8F9FFE51A0A
:100D1B005EFEE51B5F4E600F74252DF582E43400FB
:100D2B00F583ECF00C800D74252DF582E43400F581
:100D3B008374FFF00D80BB220519901145E493FFDE
:100D4B00E519C39F4007D200D201E4F519E51B4515
:100D5B001A7003D2012274017E00A819088005C302
:100D6B0033CE33CED8F9FFE51A5EFEE51B5F4E603E
:100D7B00C7E5199010E093F5D50000000000229014
:100D8B00FF1674C1F090FF14F090FF1CF090FF124F
:100D9B00F090FF11F090FF15F090FF1DF090FF13F6
:100DAB00F090FF07F090FF01F090FF00F090FF171D
:100DBB00F0D287D281D280D2A722C0E0C0F0C0830C
:100DCB00C082C0D075D000C000C001C002C003C03B
:100DDB0004C005C006C007120E6ED007D006D005A2
:100DEB00D004D003D002D001D000D0D0D082D08399
:100DFB00D0F0D0E032E4FF901143E493FEEFC39EBA
:100E0B00502B75F002EFA42466F582E5F03400F563
:100E1B0083E0FCA3E0FD75F002EFA4244FF582E51F
:100E2B00F03400F583ECF0A3EDF00F80CA22E4FD63
:100E3B00FC121000AB07AA06ED25E0FFEC33FE74A5
:100E4B00182FF58274103EF583C37401939BE493C2
:100E5B009A400B0DBD00010CED64644C70DAAE04CE
:100E6B00AF052253D4DF74252519F582E43400F540
:100E7B0083E075F002A42411F582E5F03400F583CC
:100E8B00E5D7F0A3E5D6F0120006300203200006EA
:100E9B0020010343D44022E4F516F517F518EFD3E0
:100EAB00947840027F78EF75F00A8485F026EF7511
:100EBB00F06484E5F075F00A84F527EF75F064842F
:100ECB00F528E4F529752F0122E4F50CF50DF50C49
:100EDB00F50DD2837F037E00120FC0C2837F037E8A
:100EEB0000120FC0050DE50D7002050CC394F4E55F
:100EFB000C6480948140DB22E4FF75F002EFA424A4
:100F0B0011F582E5F03400F583E0FCA3E0FD75F00C
:100F1B0002EFA42466F582E5F03400F583ECF0A330
:100F2B00EDF00FBF05D422750C01120A057019E5FF
:100F3B00F07015E52A70FC752608752708752808CA
:100F4B00752908752F0180EBE4F50CF5F0120A30CA
:100F5B007E007F0322121010E4F50C901145E493F0
:100F6B00FFE50CC39F5009AF0C12008E050C80EBF4
:100F7B009010F9E493600312007E2290FF0274013B
:100F8B00F075B480FF7E00120FC075B50290FE9B0A
:100F9B00744BF090FF1074C1F0D2A02290FF10742C
:100FAB00C1F090FFA07420F075CC06759E0275CE33
:100FBB00FF75CD9822EF1FAA0670011E4A600BE445
:100FCB00FDEDC3944750EE0D80F722758E1190FE08
:100FDB00917401F090FEAA74FFF090FEA474C2F01D
:100FEB0022E490FE80F0F589758CFA758ACB43A8C4
:100FFB00024388102243B440E5B430E5FB53B4DF21
:10100B00AFB6AEB722D201E5D420E6FB220EE70E37
:10101B00CC0EB10E960E7B0E600E450E2A0E0F0DEA
:10102B00F40DD90DBE0DA30D880D6D0D520D370DA1
:10103B001C0D010CE60CCB0CB00C950C7A0C5F0C58
:10104B00440C290C0E0BF30BD80BBD0BA20B870B0F
:10105B006C0B510B360B1B0B000AE50ACA0AAF0AC5
:10106B00940A790A5E0A430A280A0D09F209D7097C
:10107B00BC09A10986096B09500935091A08FF0833
:10108B00E408C908AE08930878085D0842082708E9
:10109B000C07F107D607BB07A00785076A074F07A1
:1010AB0034071906FE06E306C806AD069206770658
:1010BB005C06410626060B05F005D505BA059F050E
:1010CB00840569054E0533051804FD04E204C704C5
:1010DB00AC04910476000102030405060708090A13
:1010EB000B0C0D0E0FF800001400300A2006010047
:1010FB00012C006402020050000A000A000A000AD8
:10110B00000A000A000A000A000A000A000A000A84
:10111B00000A000A000A000A0078007800780078BC
:10112B0000780078007800780078007800780078F4
:0C113B000078007800780078050F1000A4
:00000001FF
