:10000000020B1E020009020D2880FE020A6080FE1B
:1000100080FE2202000E80FE80FE1402001080FE90
:0200200080FE60
:0700230002001680FE80FEC2
:10002B000200188F828E83E5821582AE83700215D3
:10003B00834E60097F147E00120FA580EA2280FE9A
:05004B0002001E80FE12
:0300530002002088
:03005B000200267A
:0D0063000200288F993099FDC2997F00227C
:03007300020DAAD1
:0C007B00020049300105C20143D44022BC
:10008B0002004E8F0DC20374017E00A80708800585
:10009B00C333CE33CED8F9F5158E1475F002E50DBA
:1000AB00A42408F582E5F03411F583E493FC740184
:1000BB0093FD900059E0FF7E001209887C007D0AB9
:1000CB0012099A8E0E8F0F75F002E50DA424E8F538
:1000DB0082E5F03410F583E493F510740193F51178
:1000EB007425250DF582E43400F583E0F50DF470ED
:1000FB000302075475F002E50DA4244FF582E5F0D9
:10010B003400F583E0FEA3E0FF75F002E50DA424B7
:10011B0066F582E5F03400F583E0FCA3E0C39FF5C0
:10012B0013EC9EF51275F002E50DA42411F582E592
:10013B00F03400F583E0FCA3E0C39FFFEC9EAB071C
:10014B00FA9010E6E493FF70030202817E00AC0E7E
:10015B00AD0F120988D3EB9FEE6480F8EA648098A8
:10016B00500302027F75F002E50DA4241BF582E516
:10017B00F03400F583E475F0011209EF75F002E538
:10018B000DA4241BF582E5F03400F583E0FEA3E01B
:10019B00FF9010E0E493FC740193FDD3EF9DEE9C74
:1001AB00402C75F002E50DA4244FF582E5F03400E8
:1001BB00F583E5128513F01209EF75F002E50DA436
:1001CB00241BF582E5F03400F583E4F0A3F07435DD
:1001DB00250DF582E43400F583E004F07435250D2C
:1001EB00F582E43400F583E0FF9010E5E493FEEF35
:1001FB00C39E401FE515F4FFE514F4FE900070E07C
:10020B005EF0A3E05FF07435250DF582E43400F564
:10021B0083E4F07400250DF582E43400F583E4F0FB
:10022B0075F002E50DA4243AF582E5F03400F58370
:10023B00E4F0A3F075F002E50DA4245AF582E5F085
:10024B003400F583E4F0A3F075F002E50DA4240768
:10025B00F582E5F03400F583E4F0A3F075F002E5E8
:10026B000DA42444F582E5F03400F583E4F0A3F00B
:10027B00D2038002C203C3EB950FE50E6480F8EA4C
:10028B0064809850030203BD3003030207549000AF
:10029B0005E0FEA3E0FF4E606A75F002E50DA424B5
:1002AB003AF582E5F03400F583E475F0011209EFBD
:1002BB0075F002E50DA4243AF582E5F03400F583E0
:1002CB00E0FCA3E0C39FEC9E403975F002E50DA462
:1002DB00244FF582E5F03400F583E5128513F01217
:1002EB0009EF7400250DF582E43400F583E4F07515
:1002FB00F002E50DA4243AF582E5F03400F583E431
:10030B00F0A3F0901129E4937E00250FFFEE350E3C
:10031B00FEC3E5139FEE6480F8E512648098500DE0
:10032B00C3EB9FEE6480F8EA648098405374002519
:10033B000DF582E43400F583E004F07400250DF52F
:10034B0082E43400F583E0FF9010E4E493FEEFC306
:10035B009E4019900070E04514F0A3E04515F07431
:10036B0000250DF582E43400F583E4F075F002E529
:10037B000DA4245AF582E5F03400F583E4F0A3F0E4
:10038B007435250DF582E43400F583E4F075F00245
:10039B00E50DA4241BF582E5F03400F583E4F0A30E
:1003AB00F075F002E50DA42407F582E5F0340002A8
:1003BB000643D3EB9511E5106480F8EA64809850FE
:1003CB00030204DE900064E0FEA3E0FF4E605D7567
:1003DB00F002E50DA4245AF582E5F03400F583E430
:1003EB0075F0011209EF75F002E50DA4245AF582A0
:1003FB00E5F03400F583E0FCA3E0D39FEC9E402CAA
:10040B0075F002E50DA4244FF582E5F03400F58379
:10041B00E5128513F01209EF75F002E50DA4245ACD
:10042B00F582E5F03400F583E4F0A3F0901129E4B4
:10043B0093FFC3E50F9FFFE50E9400FEC3E5139FEB
:10044B00EE6480F8E512648098400CEB9FEE6480BC
:10045B00F8EA64809850597435250DF582E4340020
:10046B00F583E004F07435250DF582E43400F58353
:10047B00E0FF9010E5E493FEEFC39E401FE515F4FB
:10048B00FFE514F4FE900070E05EF0A3E05FF07403
:10049B0035250DF582E43400F583E4F075F002E5C3
:1004AB000DA4243AF582E5F03400F583E4F0A3F0D3
:1004BB0075F002E50DA4241BF582E5F03400F583FD
:1004CB00E4F0A3F07400250DF582E43400F583E429
:1004DB00020648C3E49511FFE49510FEC3EB9FEEB3
:1004EB006480F8EA648098500302065AD3EB9511A6
:1004FB00E5106480F8EA648098400302065A75F0B0
:10050B0002E50DA42407F582E5F03400F583EA8BB0
:10051B00F01209EF9010E7E493F9FF75F002E50D87
:10052B00A42407F582E5F03400F583E0FCA3E0FD9D
:10053B00D39F7480F8EC648098401D90004EE0FFD0
:10054B0075F002E50DA4244FF582E5F03400F58338
:10055B00E48FF01209EF8044E9FFC3E49FFFE494BA
:10056B0000FEC3ED9FEE6480F8EC648098504175FB
:10057B00F002E50DA4244FF582E5F03400F583C0BD
:10058B0083C082E0FEA3E0FF90004EE0FDC3EF9D31
:10059B00FFEE9400D082D083F0A3EFF075F002E56C
:1005AB000DA42407F582E5F03400F583E4F0A3F005
:1005BB007435250DF582E43400F583E004F07435D1
:1005CB00250DF582E43400F583E0FF9010E5E4930C
:1005DB00FEEFC39E401F7435250DF582E43400F504
:1005EB0083E4F0E515F4FFE514F4FE900070E05E93
:1005FB00F0A3E05FF075F002E50DA4241BF582E596
:10060B00F03400F583E4F0A3F07400250DF582E4DB
:10061B003400F583E4F075F002E50DA4243AF5827D
:10062B00E5F03400F583E4F0A3F075F002E50DA4DA
:10063B00245AF582E5F03400F583E4F0A3F075F06D
:10064B0002E50DA42444F582E5F0340002074C903A
:10065B0010E2E493FE740193FF4E605D75F002E5CA
:10066B000DA42444F582E5F03400F583E475F00124
:10067B001209EF75F002E50DA42444F582E5F03480
:10068B0000F583E0FCA3E0C39FEC9E402C75F002C9
:10069B00E50DA42444F582E5F03400F583E4F0A3E2
:1006AB00F075F002E50DA4244FF582E5F03400F56A
:1006BB0083E5128513F01209EF7435250DF582E4ED
:1006CB003400F583E004F07435250DF582E4340035
:1006DB00F583E0FF9010E5E493FEEFC39E401F749B
:1006EB0035250DF582E43400F583E4F0E515F4FFD0
:1006FB00E514F4FE900070E05EF0A3E05FF075F09F
:10070B0002E50DA4241BF582E5F03400F583E4F03B
:10071B00A3F07400250DF582E43400F583E4F07545
:10072B00F002E50DA4243AF582E5F03400F583E4FC
:10073B00F0A3F075F002E50DA4245AF582E5F03430
:10074B0000F583E4F0A3F0C2032290FE94E0440290
:10075B00F090FE40E4F0A3F0A3F0A3F0A3F0A3F01D
:10076B00A3F0A3F0A3F0A3F0A3F0A3F0A3F0A3F0E6
:10077B00A3F0A3F090FE60F0A3F0A3F0A3F0A3F01E
:10078B00A3F0A3F0A3F09010DA9390FE77F0901003
:10079B00DBE49390FE76F09010DCE49390FE75F022
:1007AB009010DDE49390FE74F09010D5E493F51A5D
:1007BB00740193F51B9010DFE4936061E4F50C90EA
:1007CB00112AE493FFE50CC39F505274017E00A8DD
:1007DB000C088005C333CE33CED8F9FFE51A5EFE85
:1007EB00E51B5F4E603390FE72C083C082E0FCA3BA
:1007FB00E0FDE50C9010C593FF74017E00A807087F
:10080B008005C333CE33CED8F9FFEC4EFEED4FFF50
:10081B00D082D083EEF0A3EFF0050C80A243D480FE
:10082B00D2BD120CDF90112AE493F519120D28D2C8
:10083B0002C20012007E90112BE493FFD39403505D
:10084B0005750C058005EF2404F50CE50C600F30E5
:10085B0000F9120EE8150CC20012007E80ED120D8D
:10086B00E5C20222D287D281D280D2A7742225215F
:10087B00F8E624D5700302093024E6700302092040
:10088B002445B40A00400302093E90089CF828282E
:10089B00730208BA0208CA0208CE0208DA0208EA92
:1008AB000208F40208FE02090402090C020914D220
:1008BB00A6D2A4D2B4D2A2D2A1D2A5C2B58074C200
:1008CB00A68038D2A6D2A4C2B4D2A2D2A1800AD218
:1008DB00A6D2A4D2B4D2A2C2A1C2A5D2B58054C210
:1008EB00A6D2A4D2B4C2A28028D2A6C2A4D2B4D219
:1008FB00A2801ED2A6C2A4800CD2A6D2A4D2B4804F
:10090B002AD2A6D2A4D2B48012D2A6D2A4D2B4D266
:10091B00A2C2A1800AD2A6C2A4C2B4D2A2D2A1D230
:10092B00A5D2B5800EC2A6C2A4C2B4C2A2C2A1C235
:10093B00A5C2B5E5276002D2A3E5217006C287D216
:10094B00818009E521B4010AD287C281D280D2A766
:10095B00801CE521B4020AD287D281C280D2A78043
:10096B000DE521B40308D287D281D280C2A705211D
:10097B00D3E521648094834003E4F52122EF8DF0CD
:10098B00A4A8F0CF8CF0A428CE8DF0A42EFE22BC10
:10099B00000BBE0029EF8DF084FFADF022E4CCF804
:1009AB0075F008EF2FFFEE33FEEC33FCEE9DEC9869
:1009BB004005FCEE9DFE0FD5F0E9E4CEFD22EDF8EF
:1009CB00F5F0EE8420D21CFEADF075F008EF2FFF92
:1009DB00ED33FD4007985006D5F0F222C398FD0F7A
:1009EB00D5F0EA22C5F0F8A3E028F0C5F0F8E582CF
:1009FB00158270021583E038F022BB010A89828AC6
:100A0B0083E0F5F0A3E022500687F009E71922BB3B
:100A1B00FE07E3F5F009E3192289828A83E493F553
:100A2B00F074019322BB010A89828A83F0E5F0A35B
:100A3B00F0225006F709A7F01922BBFE06F3E5F0EA
:100A4B0009F31922EB9FF5F0EA9E42F0E99D42F083
:100A5B00E89C45F022C0E0C0F0C083C082C0D075D6
:100A6B00D000C000C001C002C003C004C005C00656
:100A7B00C00712086FE4FFFEFDFCAB2FAA2EA92DB9
:100A8B00A82CD3120A4F4030E52F24FFF52FE52E6B
:100A9B0034FFF52EE52D34FFF52DE52C34FFF52C29
:100AAB00E4FFFEFDFCAB2FAA2EA92DA82CC3120A26
:100ABB004F70457530018040E4FFFEFDFCAB34AA5E
:100ACB0033A932A831D3120A4F402DE53424FFF558
:100ADB0034E53334FFF533E53234FFF532E53134A9
:100AEB00FFF531E4FFFEFDFCAB34AA33A932A8318C
:100AFB00C3120A4F7002F530D007D006D005D004D0
:100B0B00D003D002D001D000D0D0D082D083D0F08F
:100B1B00D0E03278FFE4F6D8FD9000007F007E0431
:100B2B00E4F0A3DFFCDEFA75813A020B73020C2DA5
:100B3B00E493A3F8E493A34003F68001F208DFF4F7
:100B4B008029E493A3F85407240CC8C333C4540F6F
:100B5B004420C8834004F456800146F6DFE4800B42
:100B6B000102040810204080900C92E47E019360F7
:100B7B00BCA3FF543F30E509541FFEE493A360016F
:100B8B000ECF54C025E060A840B8E493A3FAE493D9
:100B9B00A3F8E493A3C8C582C8CAC583CAF0A3C887
:100BAB00C582C8CAC583CADFE9DEE780BEE4F5802B
:100BBB0090FF0004F090FF01F090FF02F090FF0314
:100BCB00F090FF04F090FF05F090FF06F090FF0708
:100BDB00F090FF08F090FF09F090FF0AF090FF0BE8
:100BEB00F090FF0CF090FF0DF090FF0EF090FF0FC8
:100BFB00F0E4F5A090FF1004F090FF11F090FF12BD
:100C0B00F090FF13F090FF14F090FF15F090FF168B
:100C1B00F090FF17F0E4F5B090FF1C04F090FF1D6F
:100C2B00F022E4F508F509F50AF50B120FBB120FCC
:100C3B008C120D6F120FD1D2AF12075590FF0374A8
:100C4B00C1F0E4F528F529F52AF52B30000B120E2F
:100C5B00E8120F45120012C200900070E0FEA3E0F4
:100C6B00FF4E6013EF65097003EE6508600E8E088A
:100C7B008F09120EB98005E4F508F5097B007A009F
:100C8B007928120F1780C4042200000000012700EE
:100C9B00042C0000000004310000000004370000A9
:100CAB000000013000023500000126000121004246
:100CBB00000503E842006403E84100590A41004E75
:100CCB0002011900021A0000C102C101C100420059
:100CDB0070000000E4FDFC90112AE493FFEDC39F2C
:100CEB00503A74017E00A805088005C333CE33CE7D
:100CFB00D8F9FFE51A5EFEE51B5F4E600F74252DDC
:100D0B00F582E43400F583ECF00C800D74252DF5A1
:100D1B0082E43400F58374FFF00D80BB220519903B
:100D2B00112AE493FFE519C39F4007D200D201E4D7
:100D3B00F519E51B451A7003D2012274017E00A838
:100D4B0019088005C333CE33CED8F9FFE51A5EFE02
:100D5B00E51B5F4E60C7E5199010C593F5D50000F4
:100D6B000000002290FF1674C1F090FF14F090FF6A
:100D7B001CF090FF12F090FF11F090FF15F090FF18
:100D8B001DF090FF13F090FF07F090FF01F090FF24
:100D9B0000F090FF17F0D287D281D280D2A722C069
:100DAB00E0C0F0C083C082C0D075D000C000C001CD
:100DBB00C002C003C004C005C006C007120E53D04A
:100DCB0007D006D005D004D003D002D001D000D07C
:100DDB00D0D082D083D0F0D0E032E4FF901128E461
:100DEB0093FEEFC39E502B75F002EFA42466F582A1
:100DFB00E5F03400F583E0FCA3E0FD75F002EFA411
:100E0B00244FF582E5F03400F583ECF0A3EDF00F01
:100E1B0080CA22E4FDFC120FE5AB07AA06ED25E024
:100E2B00FFEC33FE74FD2FF582740F3EF583C37414
:100E3B0001939BE4939A400B0DBD00010CED646490
:100E4B004C70DAAE04AF052253D4DF74252519F5A7
:100E5B0082E43400F583E075F002A42411F582E5F9
:100E6B00F03400F583E5D7F0A3E5D6F01200063099
:100E7B00020320000620010343D44022E4F516F5BB
:100E8B0017F518EFD3947840027F78EF75F00A844A
:100E9B0085F022EF75F06484E5F075F00A84F52394
:100EAB00EF75F06484F524E4F52575270122E4F54C
:100EBB000CF50DF50CF50DD2837F037E00120FA5FB
:100ECB00C2837F037E00120FA5050DE50D70020591
:100EDB000CC394F4E50C6480948140DB22E4FF7531
:100EEB00F002EFA42411F582E5F03400F583E0FC69
:100EFB00A3E0FD75F002EFA42466F582E5F0340063
:100F0B00F583ECF0A3EDF00FBF05D422750C0112A5
:100F1B000A057019E5F07015E52670FC7522087549
:100F2B00230875240875250875270180EBE4F50C5B
:100F3B00F5F0120A307E007F0322120FF5E4F50C58
:100F4B0090112AE493FFE50CC39F5009AF0C1200DC
:100F5B008E050C80EB9010DEE493600312007E2272
:100F6B0090FF027401F075B480FF7E00120FA5751F
:100F7B00B50290FE9B744BF090FF1074C1F0D2A0A1
:100F8B002290FF1074C1F090FFA07420F075CC0676
:100F9B00759E0275CEFF75CD9822EF1FAA067001C4
:100FAB001E4A600BE4FDEDC3944750EE0D80F72213
:100FBB00758E1190FE917401F090FEAA74FFF09063
:100FCB00FEA474C2F022E490FE80F0F589758CFAD1
:100FDB00758ACB43A8024388102243B440E5B43052
:100FEB00E5FB53B4DFAFB6AEB722D201E5D420E6B2
:100FFB00FB220EE70ECC0EB10E960E7B0E600E454D
:10100B000E2A0E0F0DF40DD90DBE0DA30D880D6D0F
:10101B000D520D370D1C0D010CE60CCB0CB00C95C5
:10102B000C7A0C5F0C440C290C0E0BF30BD80BBD7C
:10103B000BA20B870B6C0B510B360B1B0B000AE532
:10104B000ACA0AAF0A940A790A5E0A430A280A0DE9
:10105B0009F209D709BC09A10986096B09500935A1
:10106B00091A08FF08E408C908AE08930878085D58
:10107B0008420827080C07F107D607BB07A007850E
:10108B00076A074F0734071906FE06E306C806ADC5
:10109B0006920677065C06410626060B05F005D57B
:1010AB0005BA059F05840569054E0533051804FD32
:1010BB0004E204C704AC04910476000102030405A6
:1010CB00060708090A0B0C0D0E0FF8000014003070
:1010DB000A20060100012C006402020050000A00E5
:1010EB000A000A000A000A000A000A000A000A00A5
:1010FB000A000A000A000A000A000A000A00780027
:10110B007800780078007800780078007800780014
:10111B0078007800780078007800780078050F1058
:01112B0000C3
:00000001FF
