:100000000209F402001175BD052222020DC3020D82
:100010003D80FE02001680FE80FE1402001880FE65
:0200200080FE60
:0700230002001E80FE80FEBA
:10002B00020DFEAE071FEE60147C037D20ED1DAAB2
:10003B000470011C4A60EC0000000080F02280FE7E
:07004B0002002080FE80FE90
:0300530002002682
:03005B0002002878
:0D0063000200498F993099FDC2997F00225B
:03007300020E3941
:0C007B0002004E300905C20943D44022A7
:10008B000200508F0AC20B74017E00A8070880057E
:10009B00C333CE33CED8F9F5128E1175F002E50AC3
:1000AB00A42413F582E5F03412F583E493FC740178
:1000BB0093FD900018E0FF7E001209517C007D0A31
:1000CB001209638E0B8F0C75F002E50AA424F3F56D
:1000DB0082E5F03411F583E493F50D740193F50E7D
:1000EB007409250AF582E43400F583E0F50AF4700F
:1000FB000302075475F002E50AA42416F582E5F015
:10010B003400F583E0FEA3E0FF75F002E50AA424BA
:10011B001DF582E5F03400F583E0FCA3E0C39FF509
:10012B0010EC9EF50F75F002E50AA42405F582E5A7
:10013B00F03400F583E0FCA3E0C39FFFEC9EAB071C
:10014B00FA9011F1E493FF70030202817E00AC0B75
:10015B00AD0C120951D3EB9FEE6480F8EA648098E2
:10016B00500302027F75F002E50AA42407F582E52D
:10017B00F03400F583E475F0011209B875F002E56F
:10018B000AA42407F582E5F03400F583E0FEA3E032
:10019B00FF9011EBE493FC740193FDD3EF9DEE9C68
:1001AB00402C75F002E50AA42416F582E5F0340024
:1001BB00F583E50F8510F01209B875F002E50AA476
:1001CB002407F582E5F03400F583E4F0A3F0741016
:1001DB00250AF582E43400F583E004F07410250A57
:1001EB00F582E43400F583E0FF9011F0E493FEEF29
:1001FB00C39E401FE512F4FFE511F4FE900022E0D0
:10020B005EF0A3E05FF07410250AF582E43400F58C
:10021B0083E4F07400250AF582E43400F583E4F0FE
:10022B0075F002E50AA42411F582E5F03400F5839C
:10023B00E4F0A3F075F002E50AA42419F582E5F0C9
:10024B003400F583E4F0A3F075F002E50AA424036F
:10025B00F582E5F03400F583E4F0A3F075F002E5E8
:10026B000AA42413F582E5F03400F583E4F0A3F03F
:10027B00D20B8002C20BC3EB950CE50B6480F8EA42
:10028B0064809850030203BD300B030207549000A7
:10029B0001E0FEA3E0FF4E606A75F002E50AA424BC
:1002AB0011F582E5F03400F583E475F0011209B81D
:1002BB0075F002E50AA42411F582E5F03400F5830C
:1002CB00E0FCA3E0C39FEC9E403975F002E50AA465
:1002DB002416F582E5F03400F583E50F8510F01256
:1002EB0009B87400250AF582E43400F583E4F0754F
:1002FB00F002E50AA42411F582E5F03400F583E45D
:10030B00F0A3F0901234E4937E00250CFFEE350B36
:10031B00FEC3E5109FEE6480F8E50F648098500DE6
:10032B00C3EB9FEE6480F8EA648098405374002519
:10033B000AF582E43400F583E004F07400250AF535
:10034B0082E43400F583E0FF9011EFE493FEEFC3FA
:10035B009E4019900022E04511F0A3E04512F07485
:10036B0000250AF582E43400F583E4F075F002E52C
:10037B000AA42419F582E5F03400F583E4F0A3F028
:10038B007410250AF582E43400F583E4F075F0026D
:10039B00E50AA42407F582E5F03400F583E4F0A325
:1003AB00F075F002E50AA42403F582E5F0340002AF
:1003BB000643D3EB950EE50D6480F8EA6480985004
:1003CB00030204DE90001BE0FEA3E0FF4E605D75B0
:1003DB00F002E50AA42419F582E5F03400F583E474
:1003EB0075F0011209B875F002E50AA42419F5821B
:1003FB00E5F03400F583E0FCA3E0D39FEC9E402CAA
:10040B0075F002E50AA42416F582E5F03400F583B5
:10041B00E50F8510F01209B875F002E50AA424194E
:10042B00F582E5F03400F583E4F0A3F0901234E4A8
:10043B0093FFC3E50C9FFFE50B9400FEC3E5109FF4
:10044B00EE6480F8E50F648098400CEB9FEE6480BF
:10045B00F8EA64809850597410250AF582E4340048
:10046B00F583E004F07410250AF582E43400F5837B
:10047B00E0FF9011F0E493FEEFC39E401FE512F4F2
:10048B00FFE511F4FE900022E05EF0A3E05FF07454
:10049B0010250AF582E43400F583E4F075F002E5EB
:1004AB000AA42411F582E5F03400F583E4F0A3F0FF
:1004BB0075F002E50AA42407F582E5F03400F58314
:1004CB00E4F0A3F07400250AF582E43400F583E42C
:1004DB00020648C3E4950EFFE4950DFEC3EB9FEEB9
:1004EB006480F8EA648098500302065AD3EB950EA9
:1004FB00E50D6480F8EA648098400302065A75F0B3
:10050B0002E50AA42403F582E5F03400F583EA8BB7
:10051B00F01209B89011F2E493F9FF75F002E50AB5
:10052B00A42403F582E5F03400F583E0FCA3E0FDA1
:10053B00D39F7480F8EC648098401D900015E0FF09
:10054B0075F002E50AA42416F582E5F03400F58374
:10055B00E48FF01209B88044E9FFC3E49FFFE494F1
:10056B0000FEC3ED9FEE6480F8EC648098504175FB
:10057B00F002E50AA42416F582E5F03400F583C0F9
:10058B0083C082E0FEA3E0FF900015E0FDC3EF9D6A
:10059B00FFEE9400D082D083F0A3EFF075F002E56C
:1005AB000AA42403F582E5F03400F583E4F0A3F00C
:1005BB007410250AF582E43400F583E004F074101E
:1005CB00250AF582E43400F583E0FF9011F0E49303
:1005DB00FEEFC39E401F7410250AF582E43400F52C
:1005EB0083E4F0E512F4FFE511F4FE900022E05EE7
:1005FB00F0A3E05FF075F002E50AA42407F582E5AD
:10060B00F03400F583E4F0A3F07400250AF582E4DE
:10061B003400F583E4F075F002E50AA42411F582A9
:10062B00E5F03400F583E4F0A3F075F002E50AA4DD
:10063B002419F582E5F03400F583E4F0A3F075F0AE
:10064B0002E50AA42413F582E5F0340002074C906E
:10065B0011EDE493FE740193FF4E605D75F002E5BE
:10066B000AA42413F582E5F03400F583E475F00158
:10067B001209B875F002E50AA42413F582E5F034EB
:10068B0000F583E0FCA3E0C39FEC9E402C75F002C9
:10069B00E50AA42413F582E5F03400F583E4F0A316
:1006AB00F075F002E50AA42416F582E5F03400F5A6
:1006BB0083E50F8510F01209B87410250AF582E452
:1006CB003400F583E004F07410250AF582E434005D
:1006DB00F583E0FF9011F0E493FEEFC39E401F748F
:1006EB0010250AF582E43400F583E4F0E512F4FFFB
:1006FB00E511F4FE900022E05EF0A3E05FF075F0F0
:10070B0002E50AA42407F582E5F03400F583E4F052
:10071B00A3F07400250AF582E43400F583E4F07548
:10072B00F002E50AA42411F582E5F03400F583E428
:10073B00F0A3F075F002E50AA42419F582E5F03474
:10074B0000F583E4F0A3F0C20B2290FE94E0440288
:10075B00F090FE40E4F0A3F0A3F0A3F0A3F0A3F01D
:10076B00A3F0A3F0A3F0A3F0A3F0A3F0A3F0A3F0E6
:10077B00A3F0A3F090FE60F0A3F0A3F0A3F0A3F01E
:10078B00A3F0A3F0A3F09011E59390FE77F09011F6
:10079B00E6E49390FE76F09011E7E49390FE75F00B
:1007AB009011E8E49390FE74F09011E0E493F51748
:1007BB00740193F5189011EAE4936061E4F50990E4
:1007CB001235E493FFE509C39F505274017E00A8D4
:1007DB0009088005C333CE33CED8F9FFE5175EFE8B
:1007EB00E5185F4E603390FE72C083C082E0FCA3BD
:1007FB00E0FDE5099011D993FF74017E00A807086D
:10080B008005C333CE33CED8F9FFEC4EFEED4FFF50
:10081B00D082D083EEF0A3EFF0050980A243D48001
:10082B00D2BD120CAC901235E493F516120D3DD2DD
:10083B000AC20812007E901236E493FFD394035041
:10084B00057509058005EF2404F509E509600F30EE
:10085B0008F9120F471509C20812007E80ED120E1F
:10086B0074C20A22D296D2A3D294ED1209CE08A456
:10087B000008A60108AE0208BA0308C40408CE0596
:10088B0008D80608E40708F00808FC0909282B0813
:10089B00A42D090C63000009368072C293D2A1C249
:1008AB00B5803CD293D2A1D2B5C2A4C2A28068D2E9
:1008BB0093D2A1D2B5C2A48040D293D2A1C2B5D259
:1008CB00A4801ED293C2A1D2B5D2A4802CD293C243
:1008DB00A1D2B5D2A4D2A2803EC293D2A1D2B5C22C
:1008EB00A4D2A28042D293D2A1D2B5D2A4D2A2805A
:1008FB0026D293D2A1D2B5D2A4D2A2C295D2B48021
:10090B002AD293C2A1D2B5D2A4C2A2801AC293D2C8
:10091B00A1D2B5D2A4D2A2D295D2B4800EC293C228
:10092B00A1C2B5C2A4C2A2C295C2B4BF0107D296DE
:10093B00D2A3C29422BF0207D296C2A3D29422C2E0
:10094B0096D2A3D29422EF8DF0A4A8F0CF8CF0A472
:10095B0028CE8DF0A42EFE22BC000BBE0029EF8DFD
:10096B00F084FFADF022E4CCF875F008EF2FFFEE2A
:10097B0033FEEC33FCEE9DEC984005FCEE9DFE0F38
:10098B00D5F0E9E4CEFD22EDF8F5F0EE8420D21C93
:10099B00FEADF075F008EF2FFFED33FD40079850DB
:1009AB0006D5F0F222C398FD0FD5F0EA22C5F0F878
:1009BB00A3E028F0C5F0F8E582158270021583E0FC
:1009CB0038F022D083D082F8E493701274019370C4
:1009DB000DA3A393F8740193F5828883E4737402D7
:1009EB00936860EFA3A3A380DF78FFE4F6D8FD90B4
:1009FB0000007F007E04E4F0A3DFFCDEFA758121AA
:100A0B00020A49020B85E493A3F8E493A34003F68F
:100A1B008001F208DFF48029E493A3F85407240C37
:100A2B00C8C333C4540F4420C8834004F456800118
:100A3B0046F6DFE4800B0102040810204080900D85
:100A4B0084E47E019360BCA3FF543F30E509541F3F
:100A5B00FEE493A360010ECF54C025E060A840B81C
:100A6B00E493A3FAE493A3F8E493A3C8C582C8CA9A
:100A7B00C583CAF0A3C8C582C8CAC583CADFE9DE6D
:100A8B00E780BEE5156401707B120EAD8E098F0AEF
:100A9B00D3E50A9514E50995134021E50A9514FF52
:100AAB00E5099513FEC3EF9402EE94004038E50A76
:100ABB0024FFF514E50934FFF513802AC3E50A95E5
:100ACB0014E5099513501FC3E514950AFFE513951B
:100ADB0009FEC3EF9402EE9400400BE50A2401F5E6
:100AEB0014E43509F513E50A646345097005F5133C
:100AFB00751463E50A45097004F513F514AF14AECC
:100B0B0013120C5522E4F58090FF0004F090FF01C6
:100B1B00F090FF02F090FF03F090FF04F090FF05C0
:100B2B00F090FF06F090FF07F090FF08F090FF09A0
:100B3B00F090FF0AF090FF0BF090FF0CF090FF0D80
:100B4B00F090FF0EF090FF0FF0E4F5A090FF100473
:100B5B00F090FF11F090FF12F090FF13F090FF1444
:100B6B00F090FF15F090FF16F090FF17F0E4F5B042
:100B7B0090FF1C04F090FF1DF022E4F50812108882
:100B8B0090FE927410F0120B1012102912110AD24F
:100B9B00AF1207551210EC300844120F47120FA476
:100BAB0012000AC208900024E06402703104F0E4E1
:100BBB00F508901233E493FFE508C39F50207400AF
:100BCB002508F582E43400F583E0600EE490002400
:100BDB00F090001FF0D28C1210EC050880D4120A92
:100BEB008E120F761210B480AEE4FF121102E4F5F0
:100BFB00D4900022F0A3F0FF901233E493FEEFC3E6
:100C0B009E500F74002FF582E43400F583E4F00F4F
:100C1B0080E690FEA4E0547FF0C28C758CC1758A7F
:100C2B0080120CF51210724387020000000090FE38
:100C3B00A4E04480F043D4807F0112109E43D44043
:100C4B0012007E9000247402F022AB07AA06E4F592
:100C5B000BF50CD3EB9463EA940040047A007B63AE
:100C6B007C007D0AAF03AE021209638F0BAE02AF9D
:100C7B00037C007D0A1209638D0CE50B7003750B69
:100C8B002BAD0B7F0112086F0F12002EAD0C7F02E4
:100C9B0012086F12002E7D637F0312086F1F020074
:100CAB002EE4FDFC901235E493FFEDC39F503A7494
:100CBB00017E00A805088005C333CE33CED8F9FFDB
:100CCB00E5175EFEE5185F4E600F74092DF582E4A3
:100CDB003400F583ECF00C800D74092DF582E434AF
:100CEB0000F58374FFF00D80BB22E51564017041A4
:100CFB00F51590FF0204F090FF10F090FF0BF090B1
:100D0B00FF11F090FF1DF090FF14F090FF12F09088
:100D1B00FF0DF090FF1CF090FF0EF090FF13F09082
:100D2B00FF0CF075B403E4F5B590FE9BF0F5B7F549
:100D3B00B6220516901235E493FFE516C39F4007C4
:100D4B00D208D209E4F516E51845177003D209222B
:100D5B0074017E00A816088005C333CE33CED8F9B4
:100D6B00FFE5175EFEE5185F4E60C7E5169011D9DB
:100D7B0093F5D50000000000224100240001200063
:100D8B00410020004100210041001F00011500021D
:100D9B0013000042000103E842001B03E841001866
:100DAB000A4100150201160002170000C10AC10911
:100DBB00C108420022000000C0E0C0F0C083C08226
:100DCB00C0D075D000C000C001C002C003C004C0B9
:100DDB0005C006C007120FCAD007D006D005D00435
:100DEB00D003D002D001D000D0D0D082D083D0F0AD
:100DFB00D0E032C0E0C0F0C083C082C0D075D0005C
:100E0B00C000C001C002C003C004C005C006C007BB
:100E1B00120006D007D006D005D004D003D002D0E4
:100E2B0001D000D0D0D082D083D0F0D0E032C0E05F
:100E3B00C0F0C083C082C0D075D000C000C001C05C
:100E4B0002C003C004C005C006C007120EE2D007E3
:100E5B00D006D005D004D003D002D001D000D0D022
:100E6B00D082D083D0F0D0E032E4FF901233E49301
:100E7B00FEEFC39E502B75F002EFA4241DF582E507
:100E8B00F03400F583E0FCA3E0FD75F002EFA42441
:100E9B0016F582E5F03400F583ECF0A3EDF00F804E
:100EAB00CA22E4FDFC1210DCAB07AA06ED25E0FF1D
:100EBB00EC33FE74112FF58274113EF583C374016C
:100ECB00939BE4939A400B0DBD00010CED64644CB5
:100EDB0070DAAE04AF052253D4DF74092516F58200
:100EEB00E43400F583E075F002A42405F582E5F007
:100EFB003400F583E5D7F0A3E5D6F012000E300AE7
:100F0B000320080620090343D4402290FF0B74C131
:100F1B00F090FF11F090FF1DF090FF14F090FF1276
:100F2B00F090FF0DF090FF1CF090FF0EF090FF1370
:100F3B00F090FF0CF0D296D2A3D29422E4FF75F07E
:100F4B0002EFA42405F582E5F03400F583E0FCA361
:100F5B00E0FD75F002EFA4241DF582E5F03400F5F9
:100F6B0083ECF0A3EDF00FBF01D42230012AC201B4
:100F7B00900022E07002A3E07019900024E070133F
:100F8B0090001FE004F0C39432400DE4F090002475
:100F9B0004F022E490001FF022121102E4F50990F4
:100FAB001235E493FFE509C39F5009AF0912008E78
:100FBB00050980EB9011E9E493600312007E229007
:100FCB000020E004F0C3940A4004E4F0D2003000A7
:100FDB0011C200900021E004F0C3940A4004E4F035
:100FEB00D2012290FF027401F075B4807F051210BC
:100FFB005B75B50290FE9B744BF090FF1074C1F0C3
:10100B00D2A022AE071FEE60147C1F7D40ED1DAAFF
:10101B000470011C4A60EC0000000080F022C28CBE
:10102B00C28D90FE80E04401F05389FC758CC17534
:10103B008A80D2A9D28C2290FF1074C1F090FFA0AD
:10104B007420F075CC06759E0275CEFF75CD982277
:10105B00AD071FED60107E08AD061EED60F20000BF
:10106B000000000080F222D310AF01C3C0D075BDC9
:10107B0015D2AD7F011210C9D0D092AF22758E114F
:10108B0090FE917401F090FEAA74FFF090FEA47490
:10109B00C2F022AE071FEE600F7C007D9CED1D7031
:1010AB00011C144C60ED80F522900024E0B4010388
:1010BB00020BF4900024E0B402031210FA22AD07E5
:1010CB001FED600CE4FEEEC3948250F2000E80F62E
:1010DB002243B440E5B430E5FB53B4DFAFB6AEB753
:1010EB0022E5157009751501120FEE120F1622432A
:1010FB0087010000000022D209E5D420E6FB2290F4
:10110B00FEA0742BF0220EE70ECC0EB10E960E7BCA
:10111B000E600E450E2A0E0F0DF40DD90DBE0DA34C
:10112B000D880D6D0D520D370D1C0D010CE60CCB02
:10113B000CB00C950C7A0C5F0C440C290C0E0BF3B9
:10114B000BD80BBD0BA20B870B6C0B510B360B1B70
:10115B000B000AE50ACA0AAF0A940A790A5E0A4327
:10116B000A280A0D09F209D709BC09A10986096BDE
:10117B0009500935091A08FF08E408C908AE089395
:10118B000878085D08420827080C07F107D607BB4B
:10119B0007A00785076A074F0734071906FE06E302
:1011AB0006C806AD06920677065C06410626060BB8
:1011BB0005F005D505BA059F05840569054E053370
:1011CB00051804FD04E204C704AC0491047602077D
:1011DB000B0C0D0E0F0040001400300A200601000E
:1011EB00012C006402020050000A000A000A000AE7
:1011FB00000A000A000A000A000A000A000A000A94
:10120B00000A000A000A000A0078007800780078CB
:10121B000078007800780078007800780078007803
:0C122B000078007800780078010F0700C0
:00000001FF
